:100000000C94AC050C94F3050C94F3050C94F305D7
:100010000C94F3050C94F3050C94F3050C94F30580
:100020000C94F3050C94F3050C94F3050C943B121B
:100030000C94EB120C94A5220C94F3050C94F3058C
:100040000C94F3050C94F3050C94F3050C942623FF
:100050000C94F3050C94F3050C94F3050C94F30540
:100060000C94F3050C94F3050C94F3050C94F30530
:100070000C94F305041607090B0A1D1B06196405E9
:10008000141A08151C171E1F202123222E26242D8A
:1000900025273012182F0C13280F0D340E3331364C
:1000A000381110372B2C352A5829787B79397A501A
:1000B0004F5152726C63685680668053020103553B
:1000C0005880576D6E5462595A5B5C5D5E5F6F601D
:1000D000617475663E3F403C4142774476466B47CB
:1000E000804365458048494A4B4C3D4D3B4E3A7DE7
:1000F0007E7C7F730A0025303458006164625F683B
:100100006F73745F6B62645F726563763A2000455B
:1001100052524F523A206D65646961206B657930A7
:100120000A004552524F523A206D65646961206B56
:100130006579310A005B423A253032582C20583A12
:100140002564282564292C20593A2564282564290A
:100150002C20413A25645D0A005D2000253032588C
:1001600020004D6F7573653A205B002061646472F6
:100170003A25642C20726567333A253034580A00DA
:100180000A5363616E3A0A006465746563742061A2
:100190006761696E0A00544D353A206578740A002B
:1001A000556E6B6E6F776E0A00544D353A2064655C
:1001B0006661756C740A005D206370693D25640A90
:1001C000002530325820004578743A205B00436C9B
:1001D0006173736963203230306370690A00436C65
:1001E0006173736963203130306370690A00616440
:1001F0006472256420726567333A20253032580ACC
:10020000006D6F7665206661696C0A0061646472D6
:10021000256420726567333A20253032580A000A77
:100220004D6F7573653A0A004D65646961206B65B1
:1002300079730A006861646C65723A20253032581F
:100240002C2049534F3A2025730A000A4B657962E6
:100250006F6172643A0A007300530052000A4B65E2
:1002600079626F6172642073746172742E0A000A7D
:1002700055534220636F6E666967757265642E0A16
:10028000000A0A544D4B3A66356534383762632F9D
:100290004C5546410A0A002E03410044004200200A
:1002A000006B006500790062006F006100720064FD
:1002B00000200063006F006E00760065007200741D
:1002C000006500720000000E0374002E006D002E09
:1002D000006B002E000000040309040902740004EE
:1002E0000100A032090400000103010100092111ED
:1002F0000100012240000705810308000A090401EA
:10030000000103010200092111010001224D000733
:1003100005820308000A0904020001030000000925
:1003200021110100012236000705830308000A0994
:100330000403000203000000092111010001222230
:1003400000070584032000010705040320000112B3
:1003500001100100000008EDFEDB0A0101010200AE
:10036000010631FF0974A1010975150026FF0095EA
:1003700020750881020976150026FF009520750872
:100380009102C005010980A10185021601002637EE
:10039000001A81002AB700751095018100C0050C74
:1003A0000901A1018503160100269C021A01002AF9
:1003B0009C02751095018100C005010902A1010987
:1003C00001A10005091901290515002501950575EB
:1003D000018102950175038101050109300931157B
:1003E00081257F95027508810609381581257F953D
:1003F0000175088106050C0A38021581257F9501D3
:1004000075088106C0C005010906A101050719E0AC
:1004100029E71500250195087501810295017508E8
:1004200081010508190129059505750191029501BC
:10043000750391010507190029FF150026FF009596
:100440000675088100C0636F6E73756D65723A2022
:10045000253034580A0073797374656D3A2025305D
:1004600034580A000A002530325820006B65796242
:100470006F6172643A20004C45443A20253032586E
:100480000A00253032583A202530386225730A0098
:10049000722F632030313233343536370A00290A5F
:1004A000002575002F002575005D280025640020BB
:1004B00000256400200025640020002564007C00E5
:1004C00025303258006D6F7573656B6579205B62FE
:1004D000746E7C782079207620685D287265702F94
:1004E00061636C293A205B006D6B5F776865656CB2
:1004F0005F74696D655F746F5F6D6178203D202565
:10050000640A006D6B5F776865656C5F6D61785F2D
:100510007370656564203D2025640A006D6B5F740F
:10052000696D655F746F5F6D6178203D2025640A99
:10053000006D6B5F6D61785F7370656564203D2051
:1005400025640A006D6B5F696E74657276616C205C
:100550003D2025640A006D6B5F64656C6179203D08
:100560002025640A006D6B5F776865656C5F746950
:100570006D655F746F5F6D6178203D2025640A00B2
:100580006D6B5F776865656C5F6D61785F737065D3
:100590006564203D2025640A006D6B5F74696D659C
:1005A0005F746F5F6D6178203D2025640A006D6B7C
:1005B0005F6D61785F7370656564203D2025640A16
:1005C000006D6B5F696E74657276616C203D2025ED
:1005D000640A006D6B5F64656C6179203D20256461
:1005E0000A000A00257500363A20776865656C5F59
:1005F00074696D655F746F5F6D61783A20000A0001
:10060000257500353A20776865656C5F6D61785FA8
:1006100073706565643A20000A00257500343A203D
:1006200074696D655F746F5F6D61783A20000A00D0
:10063000257500333A206D61785F73706565643AA3
:1006400020000A00257500323A20696E74657276C2
:10065000616C286D73293A20000A00257500313A33
:100660002064656C6179282A31306D73293A200045
:100670000A092D2056616C756573202D0A004D3EC8
:10068000004D25643E20003F00736574206465665C
:1006900061756C740A00433E2000776865726520BE
:1006A00064656C74613A20637572736F723D256482
:1006B0002C20776865656C3D25640A536565206864
:1006C0007474703A2F2F656E2E77696B697065644C
:1006D00069612E6F72672F77696B692F4D6F757324
:1006E000655F6B6579730A000A092D204D6F75737C
:1006F000656B6579202D0A4553432F713A09717551
:1007000069740A313A0964656C6179282A31306D5F
:1007100073290A323A09696E74657276616C286DC4
:1007200073290A333A096D61785F73706565640AED
:10073000343A0974696D655F746F5F6D61780A356D
:100740003A09776865656C5F6D61785F73706565A0
:10075000640A363A09776865656C5F74696D655F30
:10076000746F5F6D61780A0A703A097072696E740D
:100770002076616C7565730A643A09736574206448
:10078000656661756C74730A75703A092B310A6479
:100790006F776E3A092D310A706775703A092B31FF
:1007A000300A7067646F776E3A092D31300A0A7328
:1007B00070656564203D2064656C7461202A206D3D
:1007C00061785F7370656564202A202872657065A2
:1007D0006174202F2074696D655F746F5F6D61783F
:1007E000290A003F004D3E2000433E20004C256476
:1007F0000A000A092D20436F6E736F6C65202D0A65
:100800004553432F713A09717569740A6D3A096D40
:100810006F7573656B65790A000A092D204D616754
:100820006963202D0A643A0964656275670A783A3B
:10083000096465627567206D61747269780A6B3A44
:10084000096465627567206B6579626F6172640A1D
:100850006D3A096465627567206D6F7573650A7618
:100860003A0976657273696F6E0A733A0973746137
:100870007475730A633A09636F6E736F6C65206DEC
:100880006F64650A302D343A096C61796572302DD8
:1008900034284631302D4634290A506175733A099F
:1008A000626F6F746C6F616465720A003F007469F7
:1008B0006D65725F72656164333228293A20253094
:1008C000346C580A006B6579626F6172645F6964A9
:1008D0006C653A2025580A006B6579626F61726415
:1008E0005F70726F746F636F6C3A2025580A0068EE
:1008F0006F73745F6B6579626F6172645F6C65645E
:100900007328293A2025580A000A092D20537461BA
:10091000747573202D0A004743433A20392E312E37
:1009200030204156522D4C4942433A20322E302E2F
:1009300030204156525F415243483A20617672332B
:10094000350A004F5054494F4E533A204C554641BA
:10095000204D4F5553454B45592045585452414B16
:10096000455920434F4E534F4C4520434F4D4D4129
:100970004E44204B45594D41505F53454354494FD8
:100980004E20343039360A004255494C443A2066EC
:1009900035653438376263202831393A31303A3599
:1009A00032205365702031302032303139290A002D
:1009B0005649443A2030784645454428742E6D2ED9
:1009C0006B2E29205049443A203078304144422847
:1009D000414442206B6579626F61726420636F6E7F
:1009E00076657274657229205645523A2030783007
:1009F0003130310A00444553433A20636F6E7665C7
:100A0000727420414442206B6579626F6172642088
:100A1000746F205553420A000A092D2056657273DF
:100A2000696F6E202D0A000A6D6F7573653A206F2D
:100A300066660A000A6D6F7573653A206F6E0A006C
:100A40000A6B6579626F6172643A206F66660A00AC
:100A50000A6B6579626F6172643A206F6E0A000AF0
:100A60006D61747269783A206F66660A000A6D617A
:100A7000747269783A206F6E0A000A64656275675D
:100A80003A206F6E0A000A64656275673A206F66E5
:100A9000660A000A0A626F6F746C6F616465722E79
:100AA0002E2E2000433E20001A0B1A0B6D0B1A0B42
:100AB0006D0B1A0B6D0B6D0B6D0B1A0B6D0B6D0B1C
:100AC0006D0B1A0B6D0B6D0B1A0B6D0B6D0B6D0B0C
:100AD0006D0B1A0B6D0B6D0B6D0B1A0B58137D13F1
:100AE00061147D136114AD13CE13611423142F14FC
:100AF000D217D217101810189918D118C117C1178A
:100B0000EB18C1170D1A0D1AB71AC117C117CF1A52
:100B10004B285C28282828282828462828282828E0
:100B20008228282892282828282828282828282881
:100B3000B92828282828A2282828722828282828E0
:100B4000F428F428F428F428F428F428F428F428C5
:100B5000F428F0282828F02811241FBECFEFD4E075
:100B6000DEBFCDBF04B603FE27C080918003909105
:100B70008103A0918203B09183038730904BA740FB
:100B8000B04BD1F410928003109281031092820333
:100B90001092830314BE84B7877F84BF0FB6F89486
:100BA000A895809160008861809360001092600039
:100BB0000FBEE0E0F8E3099511E0A0E0B1E0EEE758
:100BC000F7E502C005900D92A235B107D9F723E0F1
:100BD000A2E5B1E001C01D92A038B207E1F70E9482
:100BE000290F0C94BD2B0C940000FF93EF93E09120
:100BF0005201F0915301309709F00995EF91FF915F
:100C00000895FC018591803011F0EFDFFBCF08954E
:100C1000FF27E0E230E247FF0CC0419597FF09C093
:100C2000EDE26095709580959095611D711D811D17
:100C3000911D27FF02C0219530E350E2AA27660FDD
:100C4000771F881F991FAA1FA41710F0A41B639574
:100C50005A95A9F7AA3008F0A95FA05DAF93F39564
:100C6000611571058105910541F7ED3211F4EF939E
:100C7000F395F21718F43F93F395FBCF8F91B5DFFF
:100C8000FA95E1F70895E991F9918591803021F085
:100C9000853219F0AADFF9CF089520E0E894559144
:100CA0005532C1F3503311F4689455915A3348F4D6
:100CB000505390F3220F022E220F220F200D250FEA
:100CC000F4CF0EF4219589919991533619F3533746
:100CD00029F1533559F1BC0188279927E8945C36EE
:100CE00021F48991999168945591543639F446EFDD
:100CF0007EF077FF0DC08FEF9FEF0AC055374AE0B7
:100D000039F0583540E121F0523642E009F00895BB
:100D1000FF93EF937DDFEF91FF91B7CFFF93EF93B9
:100D2000FC0181918030B9F360DFFBCFFF93EF933B
:100D300068DFF1CFDF93CF93CDB7DEB72596A3DF82
:100D4000CF91DF910895E82FE695E695E695EF704F
:100D5000F0E0E05AFE4F9081482F477021E030E0EC
:100D600001C0220F4A95EAF787FF04C02095292386
:100D700020830895292BFCCF0F931F93CF93DF93EC
:100D800080E891E09F938F930E949A060F900F90B6
:100D9000D0E0C0E00BE611E063E08C2F0E945D0C18
:100DA0009C01009771F03F938F93DF93CF931F9334
:100DB0000F930E949A060F900F900F900F900F9034
:100DC0000F902196C031D10539F7DF91CF911F9156
:100DD0000F9108953F924F925F926F927F928F9200
:100DE0009F92AF92BF92CF92DF92EF92FF920F93BA
:100DF0001F93CF93DF93CDB7DEB728970FB6F89444
:100E0000DEBF0FBECDBF96E9492E91E0592E20EAF4
:100E1000622E21E0722E39EAC32E31E0D32E41EC4E
:100E2000A42E41E0B42E63E083E00E945D0C8C01AF
:100E3000892B09F44AC18091620383FF11C01F937B
:100E40000F931F9283E08F938CE092E09F938F9398
:100E50000E949A060F900F900F900F900F900F9096
:100E600083E00E94CD0C412F4F602EEF63E083E0C2
:100E70000E94BB0C8FE00E94CD0C63E08FE00E94CB
:100E80005D0C8C01809162030115110559F483FFFB
:100E9000CACF81E092E09F938F930E949A060F90B1
:100EA0000F90C1CF83FF11C01F930F931F928FE04C
:100EB0008F938EEE91E09F938F930E949A060F90EE
:100EC0000F900F900F900F900F90902E84E6E82EC9
:100ED000F12C8FEF890D823008F064C08FE00E9402
:100EE000CD0C24E0412F63E08FE00E94BB0C63E057
:100EF0008FE00E945D0C8C01982E21E0821312C0BD
:100F00008FE00E94CD0C22E0412F63E08FE00E9431
:100F1000BB0C63E08FE00E945D0C8C01982E31E0E9
:100F2000831781F082E098123DC08EEC91E09F9390
:100F30008F930E949A0628EC30E03093130120939F
:100F400012010AC0EEEDF1E0FF93EF930E949A06C2
:100F5000F0921301E09212010F900F908FE00E9427
:100F6000CD0C412F407F4A602EEF63E08FE00E945E
:100F7000BB0C8AE00E94CD0C63E08FE00E945D0C08
:100F80008C01982E892B09F44ECF8091620383FF48
:100F9000A0CFE8E8F1E0FF93EF930E949A060F904C
:100FA0000F9097CF34E0931274C028E0AE014F5FEA
:100FB0005F4F61E08FE00E94D30B863080F12D817E
:100FC0003E813227232732273093130120931201C9
:100FD000882E912C1F928F9387EC91E09F938F9393
:100FE0000E949A060F900F900F900F90312C832D36
:100FF000032C000C990B8815990594F1809113012D
:101000008F93809112018F9327EB31E03F932F93C1
:101010000E949A060F900F900F900F9006C0F092CA
:101020001301E09212018111D3CF89818B3461F5D4
:101030008A818D3449F58B818C3431F58C818133F3
:1010400019F5DF92CF920E949A068FE00E94CD0C94
:101050002EEF412F407F63E08FE00E94BB0C7CCFDE
:1010600021E030E02C0F3D1F820F931FFC01808197
:101070001F928F93BF92AF920E949A0633940F9063
:101080000F900F900F90B3CF7F926F920E949A06AD
:1010900063CF92E3991262CF5F924F920E949A06B9
:1010A0008FE00E94CD0C28E04AE051E062E08FE042
:1010B0000E94830C8FE00E94CD0C28E042E051E0BA
:1010C00062E08FE00E94830C47CF28960FB6F89419
:1010D000DEBF0FBECDBFDF91CF911F910F91FF906B
:1010E000EF90DF90CF90BF90AF909F908F907F90C8
:1010F0006F905F904F903F9008959F92AF92BF92F4
:10110000CF92DF92EF92FF920F931F93CF93DF93D3
:1011100000D000D00F92CDB7DEB7809159019091E9
:101120005A010E9401230C9708F420C10E94D52285
:1011300090935A01809359018091570190915801E1
:101140000E940123893E934040F00E94D522909353
:101150005801809357010E94EA0625E0AE014F5FD7
:101160005F4F60E08AE00E94D30BA82E31E081E05F
:101170003A1508F0F9C0B981AA8182E0B6FB44278C
:1011800040F9A6FB222720F9A81651F0FE01EA0D2E
:10119000F11D208126FB442740F922FB222720F95C
:1011A0003A2D58EF68E8353008F4F1C08D81082FEA
:1011B00010E090E883FD90E087FF90648C81482FD9
:1011C00050E083FF906287FF90618B81682F70E011
:1011D00083FF986087FF9460A7FF9260B7FF9160DC
:1011E00090935B017B0193E0EE0CFF1C9A95E1F775
:1011F00090E8E92293E0F922CA0126E0880F991FBE
:101200002A95E1F788279C71E82AF92ABF77EB2A0B
:10121000C801982F8827990F8827907EE82AF92AF5
:10122000AF77102F00271295110F107E0A2B76959D
:10123000762F66277795679560787370062B172B46
:10124000542F4427550F550F44275C71042B152B41
:1012500020915601022E000C330BC901B8010E94E7
:101260007E2BFC01C901B7010E947E2B9C01EF3748
:10127000F1050CF0A8C0E1388FEFF80714F4E1E8AD
:10128000FFEFE0935C012F3731050CF09EC0213851
:101290009FEF390714F421E83FEF20935D0180911F
:1012A000620383FF47C082E691E09F938F930E9481
:1012B0009A060F900F90912CB12C8CE5C82E81E0EE
:1012C000D82E892D092C000C990B8A159B050CF43E
:1012D0007EC089E591E09F938F930E949A0680914A
:1012E0005601282F082E000C330B3F938F93FF924B
:1012F000EF9280915D01282F082E000C330B3F9355
:101300008F931F930F9380915C01282F082E000C60
:10131000330B3F938F9380915B011F928F9385E3F3
:1013200091E09F938F930E949A060FB6F894DEBFC8
:101330000FBECDBF8BE591E00E94D614909156016F
:10134000492F092E000C550B2091120130911301E9
:10135000283C310508F44FC024E030E081E042171A
:1013600053070CF080E0890F809356010F900F9087
:101370000F900F900F90DF91CF911F910F91FF90E1
:10138000EF90DF90CF90BF90AF909F900895832F04
:10139000032E000C990BE1E0F0E0EC0FFD1FE80FCD
:1013A000F91F41110EC06083222349F0E1E0F0E013
:1013B000EC0FFD1FE80FF91F8081876080833F5F7E
:1013C000F2CE5083F1CFEFE75CCF2FE766CFE1E0BD
:1013D000F0E0EC0FFD1F8E0F9F1FFC0180811F921C
:1013E0008F93DF92CF920E949A0693940F900F9062
:1013F0000F900F9066CF28E030E0B0CF1F93CF93CF
:10140000DF93C0910001D09101018FEF9FEF909386
:10141000010180930001CF3FDC0709F06DC080918E
:101420005401909155010E9401230C9728F480E00B
:10143000DF91CF911F9108950E94D522909355017D
:101440008093540182E00E94800CEC01892B09F00A
:1014500053C080917101882309F44EC087E00E9437
:10146000800C9C01009709F447C08F779927823040
:10147000910599F170F4009751F1019759F182E2C9
:1014800091E09F938F930E949A060F900F9081E1B5
:10149000CFCF8330910521F18F37910581F7832FCD
:1014A00099278F7799278230910509F44CC0D8F499
:1014B0000097F9F0019709F442C08FE091E09F9303
:1014C0008F930E949A060F900F9080E1B1CF207801
:1014D0002264E5CF20782A64E2CF20782964DFCF28
:1014E00020782864DCCF039741F73078E901D8648D
:1014F00003C03078E901D2648091620381FF27C084
:10150000209709F494CF8BEF90E00E940106DF93BF
:10151000CF9386EF90E09F938F930E949A0684EF7B
:1015200090E00E9401060F900F900F900F90CF3720
:10153000DC0781F48FE70E94A30681E079CF307841
:10154000E901DA64D9CF3078E901D964D5CF2097A1
:1015500071F76DCFCF3FDC0711F48FEFECCF8D2FFC
:101560001C2FDF3F11F48C2F1FEF909170019923F6
:1015700031F0982F9F77923381F480788A600E94AF
:10158000A3061F3FD1F2812F90E0982F88278F6FFD
:101590009093010180930001D0CF9A3081F7807839
:1015A0008263EDCFE82FF0E0E05AFE4F808108958E
:1015B000682F609582E00C94E30C80916203816057
:1015C00080936203569A5E9A0E94CF0B2FEF81EEB2
:1015D00094E0215080409040E1F700C000000E945C
:1015E000BC068BE492E09F938F930E949A0663E07F
:1015F00082E00E945D0C9C01AC0155270F900F907A
:101600008E3108F063C02C7F3327232B09F465C08B
:10161000FA013497EA31F10508F05FC0EC5AFA4F4D
:101620000C94A32B81E001C0880F2A95EAF78974F6
:1016300009F453C081E0809370018CE291E09F93A4
:101640008F935F934F9384E392E09F938F930E94D5
:101650009A0663E087E00E945D0C282F30E091E05D
:101660000F900F900F900F900F900F90823009F015
:1016700090E0909371012230310541F488E292E0CC
:101680009F938F930E949A060F900F9023E042E061
:1016900063E082E00E94BB0C8FE192E09F938F9306
:1016A0000E949A060E94EA060E94BC06E0E6F1E06B
:1016B0000F900F90119221E0E037F207D9F70E94C6
:1016C0007E140E94D80A569A5E9808959A01215C69
:1016D00031092730310508F4A5CF1092700180E35D
:1016E00091E0ADCF509A83E091E00197F1F700C00F
:1016F000000050989AEB9A95F1F700C00895509A1F
:101700008AEB8A95F1F700C0509883E091E0019749
:10171000F1F700C000000895EF92FF920F931F931E
:10172000CF93DF93D0E0C0E090E8E92EF12C082FB2
:1017300010E0C7010C2E02C0959587950A94E2F738
:1017400080239123892B69F00E947F0B2196C8305A
:10175000D10579F7DF91CF911F910F91FF90EF9015
:1017600008950E94720BF2CF509A83EF9BE001978D
:10177000F1F700C000000C947F0B489B06C023E0EB
:101780002A95F1F700000197C1F70895489906C01E
:1017900023E02A95F1F700000197C1F708955898C2
:1017A000509808950895DF92EF92FF920F931F9340
:1017B000CF93DF93C82FD62F7A01D22E80E0422F0D
:1017C00050E0282F082E000C330B24173507E4F0C7
:1017D000F8940E94B40B8C2F8295807F8D2B8C60A7
:1017E0000E948C0B0E94720B84EF91E00E94C60B4A
:1017F000892B81F48BE592E09F938F930E949A0648
:1018000078940F900F900DC02E0D3F1DF90110829E
:101810008F5FD7CF84EF91E00E94BD0B892B51F4ED
:10182000789480E0DF91CF911F910F91FF90EF901E
:10183000DF90089588E290E00E94C60B892B19F48E
:1018400089E592E0D9CF84E690E00E94BD0BC0E02C
:10185000892B21F487E592E0CFCFC82F82E890E072
:101860000E94C60B8C01DC2FD695D695D695882381
:10187000E1F01127C8010E94BD0B8823B1F0DD15EE
:1018800078F4F701ED0FF11D9081990F22E830E017
:10189000201B310B081B11092017310764F09083BE
:1018A00081E08C0FCF3FC9F6C0E078948C2F8695ED
:1018B00086958695B7CF9160F2CFCF93DF93CDB762
:1018C000DEB728970FB6F894DEBF0FBECDBF28E075
:1018D000AE014F5F5F4F0E94D30B823071F489815C
:1018E0009A8198278927982728960FB6F894DEBF03
:1018F0000FBECDBFDF91CF91089590E080E0F4CF8F
:1019000060E00C945D0CFF920F931F93CF93DF93D5
:10191000C82FF62E8A01D22FF8940E94B40B8C2F78
:101920008295807F8F2988600E948C0B0E94720BA9
:101930008FE193E00197F1F700C000000E947F0B58
:10194000F12CCD2FD0E08F2D0F2C000C990B8C1784
:101950009D074CF00E94720B7894DF91CF911F91FC
:101960000F91FF900895800F911FFC0180810E94CC
:101970008C0BF394E8CFCF93DF9300D0CDB7DEB7D5
:1019800049832A8322E0AE014F5F5F4F0E94830CA0
:101990000F900F90DF91CF910895CF93C82FF894B7
:1019A0000E94B40B8C2F8295807F81600E948C0BEB
:1019B0000E94720B8FE193E00197F1F700C00000E5
:1019C0007894CF910895262F277040E062E00C9420
:1019D000BB0C80917E020895CF93DF9300D00F92CD
:1019E000CDB7DEB720917703243019F523E02983A2
:1019F0008A839B832093E9008FEF9091E8008150C8
:101A000095FD06C095ED9A95F1F700008111F5CF8F
:101A10008091E80085FF0DC050E040E063E070E099
:101A2000CE0101960E9452108091E8008E7780933B
:101A3000E8000F900F900F90DF91CF910895CF9312
:101A4000DF9300D00F92CDB7DEB79C018091770372
:101A5000843031F582E08983205831093B832A8321
:101A600083E08093E9008FEF9091E800815095FD2D
:101A700006C095ED9A95F1F700008111F5CF8091A0
:101A8000E80085FF0DC050E040E063E070E0CE016B
:101A900001960E9452108091E8008E778093E800B2
:101AA0000F900F900F90DF91CF91089520917703C1
:101AB0002430F1F422E02093E9002FEF3091E80088
:101AC000215035FD06C035ED3A95F1F700002111A2
:101AD000F5CF2091E80025FF0BC050E040E065E025
:101AE00070E00E9452108091E8008E778093E800A9
:101AF0000895CF93DF93D82FC92F80917703843037
:101B000021F581E08093E90081E8815021F09091F6
:101B1000E80095FF1DC08091E80085FF16C050E0E9
:101B200040E068E070E08D2F9C2F0E945210809161
:101B3000E8008E778093E80088E0ED2FFC2FA6E781
:101B4000B2E001900D928A95E1F7DF91CF9108956F
:101B5000EFE3F1E03197F1F700C00000D6CFCF936B
:101B6000DF9300D000D00F92CDB7DEB72091740183
:101B70002D8321110CC00E94E122643C7940810533
:101B8000910528F081E080937401B1E0BD838D81DF
:101B90000F900F900F900F900F90DF91CF910895BD
:101BA000CF93C82F0E94AF0D309116018823F9F012
:101BB0000FB607FE1CC0809177038430C1F480917A
:101BC000E9008F702091EC00922F917020FD90E839
:101BD000982B84E08093E9008091EB0080FF04C0A3
:101BE0008091EE0087FD3EC09F709093E900232F07
:101BF00030E0C90101964091180150E084239523FB
:101C00004091170148171906E9F18091140190914C
:101C10001501280F391FF901C083809116018F5FCC
:101C2000909118018923809316012CC0E091140132
:101C3000F0911501E20FF11D80812F5F4091180195
:101C40002423209317018093F1008091E80085FD03
:101C500009C08091E80080FF05C08091E8008E7780
:101C60008093E800209117018091E800321719F065
:101C700085FDDCCFB9CF85FFB7CFC093F1009F7052
:101C80009093E90080E0CF9108950895089542E08F
:101C900061EC81E00E94541142E061EC82E00E941C
:101CA000541142E061EC83E00E94541142E261EC85
:101CB00084E00C94541180917903893081F148F4C7
:101CC000823009F491C0833009F44CC0813041F076
:101CD00008958A3009F478C08B3009F45EC0089505
:101CE00080917803813AE9F58091E800877F8093BD
:101CF000E80080917C0390917D03892B61F468E07A
:101D000086E792E070E00E94A1108091E8008B7756
:101D10008093E800089560E090E080E0F3CF809148
:101D200078038132F1F480917C0390917D03892BBB
:101D3000C1F48091E800877F8093E8008091E800FB
:101D400082FF0BC08091F10080937E028091E800B9
:101D50008B778093E8000C94881180917703811130
:101D6000EDCF089580917803813AD9F780917C0373
:101D700090917D03892BA9F78091E800877F80935C
:101D8000E8008091E80080FFFCCF809123018093E0
:101D9000F1008091E8008E77DCCF8091780381326A
:101DA00001F780917C0390917D03892BD1F680917E
:101DB000E800877F8093E8000E94881180917A0371
:101DC000809323010C94101B80917803813249F693
:101DD0008091E800877F8093E8000E9488118091BD
:101DE0007B0380937F02089580917803813A09F004
:101DF000B8CF8091E800877F8093E8008091E80069
:101E000080FFFCCF80917F02C2CF0895089580911A
:101E10007E028093750110927E020E94F2150C944E
:101E2000101B0C94070F0E94642280917503882375
:101E300029F00E948D2281110C943C1008950E947B
:101E4000A1228091750180937E0208950C941F0F4A
:101E5000089584B7877F84BF0FB6F894A8958091C2
:101E60006000886180936000109260000FBE80E87F
:101E700090E00FB6F89480936100909361000FBEDC
:101E800080ED9DE00E94312289E191E00E94791469
:101E900081E892E00E9401060E94050F0E943B1516
:101EA0000E94D8110E942B128091E20084608093DE
:101EB000E20078940E943D1580917703843009F008
:101EC00044C08FE692E00E9401060E94060F8DE555
:101ED00092E00E940106C4E0809177038530C1F151
:101EE0000E9443152091E4003091E5008091720139
:101EF000909173012817390779F38091E40090914C
:101F0000E50090937301809372010E94AF0D8823C6
:101F100019F3809177038430F9F69091E9009F706E
:101F20002091EC00822F817020FD80E8892BC093E6
:101F3000E9009091EB0090FF04C09091EE0097FDB6
:101F400026C08F708093E900C7CF0E94280FB4CFBE
:101F50000E94130FC1CFE0911401F0911501E90F18
:101F6000F11D20819F5F30911801932390931701F9
:101F70002093F1009091E80095FD09C09091E80050
:101F800090FF05C09091E8009E779093E8009091B3
:101F9000170120911601291721F02091E80025FD55
:101FA000DACF9091F200992361F29091E80090FFCE
:101FB000C8CF9091E80095FD06C09091E8009E770B
:101FC0009093E800BECF1092F100F3CF9C01DA01AC
:101FD000892F992783309105C1F068F481309105EC
:101FE00009F445C0029761F484E790E02BED32E0FC
:101FF0002D933C93089581329105E1F0829739F158
:1020000090E080E030E020E0F3CFC9019927213053
:1020100059F08230910559F0E7EDF2E0892B81F714
:10202000849190E09F01E4CFE7ECF2E0F9CFE7E99B
:10203000F2E0F6CF643020F7E62FF0E0EE0FFF1F5E
:10204000E15CFE4F2081318189E090E0D1CF6430A6
:10205000B8F670E0FB01EE0FFF1FE95CFE4F208138
:1020600031816D5C7E4FFB01808190E0C1CF82E1C8
:1020700090E02FE433E0BCCF84E089BD86E089BDE9
:1020800009B400FEFDCF8091D8008F7D8093D800E9
:102090008091E00082608093E0008091E00081FD0B
:1020A000FCCF0895AF92BF92CF92DF92FF920F9331
:1020B0001F93CF93DF936C01EB018A010E94A7115C
:1020C000F82E811123C00115110539F0F801808126
:1020D0009181C81BD90BC80ED91EB12CA12C2097F9
:1020E000A9F08091E80085FD22C08091E8008E77FC
:1020F0008093E80001151105A1F0F801808191811C
:10210000A80EB91EB182A08285E0F82E8F2DDF9136
:10211000CF911F910F91FF90DF90CF90BF90AF9024
:1021200008950E94A7118823D1F2F82EEFCFF6016F
:1021300081916F018093F1002197FFEFAF1ABF0AE1
:10214000CECFFC01CB0120917E0330917F03261777
:10215000370790F0009729F42091E8002E7720931C
:10216000E80040E0009751F4411108C08091E80078
:1021700082FF30C080E00895C901F3CF209177033A
:102180002223A1F12530A1F12091E80023FD2CC0EC
:102190002091E80022FDEACF2091E80020FFE2CF65
:1021A0002091F20030E0009719F02830310558F006
:1021B00041E02830310509F040E02091E8002E7719
:1021C0002093E800CFCF41914093F10001972F5F1A
:1021D0003F4FE9CF80917703882341F0853041F06C
:1021E0008091E80083FFC2CF81E0089582E00895E6
:1021F00083E00895FC01CB0120917E0330917F03A1
:102200002617370790F0009729F42091E8002E77E1
:102210002093E80040E0009751F4411108C08091FC
:10222000E80082FF31C080E00895C901F3CF20911A
:1022300077032223A9F12530A9F12091E80023FD9D
:102240002DC02091E80022FDEACF2091E80020FF78
:10225000E2CF2091F20030E0009719F028303105EC
:1022600058F041E02830310509F040E02091E800C5
:102270002E772093E800CFCF44914093F100319620
:1022800001972F5F3F4FE8CF80917703882341F07C
:10229000853041F08091E80083FFC1CF81E008954F
:1022A00082E0089583E00895982F953028F08F708C
:1022B0008093E90081E008959093E900242F762F20
:1022C00050E0981731F07091EC002091ED005091A2
:1022D000F00021FD02C09F5FE8CF3091EB003E7F10
:1022E0003093EB003091ED003D7F3093ED00309165
:1022F000EB0031603093EB007093EC002093ED0025
:102300005093F0002091EE0027FDE5CF80E0089586
:102310008091780387FF13C08091E80082FF06C098
:102320008091E8008B778093E80004C08091770368
:102330008111F2CF0895809177038823D9F380919A
:10234000E80080FFF8CF8091E8008E77ECCF2091F5
:10235000E4003091E50095E6A9012091EC00822F80
:10236000817020FF06C08091E80080FF06C080E0F9
:1023700008952091E80022FD1AC0809177038823F8
:1023800089F0853089F08091EB0085FD0FC02091A8
:10239000E4003091E50042175307F9F29150E1F65D
:1023A00084E0089582E0089583E0089581E008952F
:1023B0000E9435120E943812E0EEF0E080818160C8
:1023C0008083E8EDF0E080818F77808319BCE3E6BD
:1023D000F0E08081816080831092760308950E94EE
:1023E00035120E9438128091D8008F778093D800E0
:1023F0008091D80080688093D8008091D8008F7D2C
:102400008093D80084E089BD86E089BD09B400FED0
:10241000FDCF109277031092730310927503109200
:10242000740342E060E080E00E9454118091E1007A
:102430008E7F8093E1008091E20081608093E200D2
:102440008091E20088608093E2008091E0008E7FBE
:102450008093E0000895E3E6F0E080818E7F808342
:1024600081E0809376030C94EF111092E2000895BE
:102470001092E10008951F920F920FB60F9211244F
:102480002F933F934F935F936F937F938F939F937C
:10249000AF93BF93EF93FF938091E10082FF0BC056
:1024A0008091E20082FF07C08091E1008B7F8093E2
:1024B000E1000E94460E8091E10080FF19C08091EA
:1024C000E20080FF15C08091E2008E7F8093E200E1
:1024D0008091E20080618093E2008091D800806268
:1024E0008093D80019BC85E0809377030E94110F78
:1024F0008091E10084FF29C08091E20084FF25C023
:1025000084E089BD86E089BD09B400FEFDCF8091DD
:10251000D8008F7D8093D8008091E1008F7E8093DA
:10252000E1008091E2008F7E8093E2008091E200E2
:1025300081608093E20080917303882309F443C093
:1025400084E0809377030E94260F8091E10083FF4F
:1025500029C08091E20083FF25C08091E100877F40
:102560008093E10082E0809377031092730380915F
:10257000E1008E7F8093E1008091E2008E7F809366
:10258000E2008091E20080618093E20042E060E03E
:1025900080E00E9454118091F00088608093F000E8
:1025A0000E94450EFF91EF91BF91AF919F918F9146
:1025B0007F916F915F914F913F912F910F900FBE3F
:1025C0000F901F9018958091E30087FD02C081E075
:1025D000B8CF83E0B6CF1F920F920FB60F9211249F
:1025E0002F933F934F935F936F937F938F939F931B
:1025F000AF93BF93CF93DF93EF93FF93D091E90015
:10260000DF708091EC00C82FC17080FDC0E810928F
:10261000E9008091F000877F8093F00078940E9419
:102620002F131092E9008091F00088608093F000F1
:10263000CD2BCF70C093E900FF91EF91DF91CF9147
:10264000BF91AF919F918F917F916F915F914F91CA
:102650003F912F910F900FBE0F901F9018951F93D1
:10266000CF93DF93CDB7DEB7AA970FB6F894DEBF4E
:102670000FBECDBF88E793E0FC0101962091F100E9
:10268000208323E080389207B9F70E945B0E809187
:10269000E80083FF16C180917803909179039A3006
:1026A00008F00FC1E92FF0E0E259FA4F0C94A32B88
:1026B000803881F0823809F004C180917C038F70EA
:1026C0008093E9008091EB0085FB882780F91092C8
:1026D000E90006C0809174039091750391118260A6
:1026E0009091E800977F9093E8008093F10010921A
:1026F000F1008091E8008E77E0C0882309F4CEC015
:10270000823009F0DEC080917A038111D1C08091BE
:102710007C038F7009F4D5C08093E9002091EB0011
:1027200020FFC6C0933031F48091EB00806280932B
:10273000EB00BEC09091EB0090619093EB0021E024
:1027400030E001C0220F8A95EAF72093EA00109248
:10275000EA008091EB008860EACF8111B2C010914D
:102760007A031F778091E3008078812B8093E300C8
:102770008091E800877F8093E8000E948811809113
:10278000E80080FFFCCF8091E30080688093E30045
:1027900082E0111183E08093770393C080588230E8
:1027A00008F08FC080917A0390917B038C3D23E0E9
:1027B0009207A1F583E08A838AE289834FB7F89470
:1027C000DE01139620E03EE051E2E32FF0E050936B
:1027D0005700E49120FF03C0E295EF703F5FEF7078
:1027E0008E2F90E0EA30C0F0C7968D939D932F5FB7
:1027F000243159F74FBF8091E800877F8093E8002C
:102800006AE270E0CE0101960E94A1108091E8007A
:102810008B778093E80055C0C096E7CFAE014F5F3D
:102820005F4F60917C030E94E60FBC01892B09F485
:1028300048C08091E800877F8093E80089819A8171
:102840000E94FA10E3CF8038E1F58091E800877F9D
:102850008093E800809173038093F1004ACF811147
:1028600030C090917A03923060F58091E800877FC4
:102870008093E800909373030E9488118091730302
:10288000882311F084E005C08091E30087FDFACF32
:1028900081E0809377030E94470E13C080917A03F2
:1028A000813079F481E0933009F080E08093750302
:1028B0001092E9008091E800877F8093E8000E94F1
:1028C00088118091E80083FF0AC08091E800877F2B
:1028D0008093E8008091EB0080628093EB00AA96E1
:1028E0000FB6F894DEBF0FBECDBFDF91CF911F9121
:1028F000089590938502809384020895E091840264
:10290000F0918502309721F00190F081E02D09943B
:1029100080E00895EF92FF920F931F93CF93DF9380
:102920008C01E0918402F09185023097C1F1028020
:10293000F381E02D09958091620382FF30C080FF12
:1029400004C08CE694E00E940106D0E0C0E086E678
:10295000E82E84E0F82E8091620380FF0EC0F8011B
:10296000EC0FFD1F80811F928F93FF92EF920E94C8
:102970009A060F900F900F900F902196C830D105B6
:1029800051F78091620380FF0AC084E694E0DF91F2
:10299000CF911F910F91FF90EF900C940106DF9162
:1029A000CF911F910F91FF90EF900895E0918402D5
:1029B000F0918502309721F00480F581E02D099493
:1029C0000895CF93DF93EC0180918202909183026E
:1029D0008C179D0701F1D0938302C0938202E0918E
:1029E0008402F09185023097B1F00680F781E02DE6
:1029F000CE010995809162038570853061F4DF9383
:102A0000CF9386E594E09F938F930E949A060F9050
:102A10000F900F900F90DF91CF910895CF93DF9398
:102A2000EC0180918002909181028C179D0701F149
:102A3000D0938102C0938002E0918402F0918502DC
:102A40003097B1F00084F185E02DCE010995809199
:102A500062038570853061F4DF93CF9386E494E060
:102A60009F938F930E949A060F900F900F900F9054
:102A7000DF91CF9108950C94F3150E94CC220E940F
:102A8000DD0A0C94D20B8F929F92AF92BF92DF928D
:102A9000EF92FF920F931F93CF93DF9300D000D05C
:102AA0000F92CDB7DEB70E94FE0987E8A82E82E01C
:102AB000B82E10E0812F0E94D20AF82EF501D19095
:102AC0005F01D81699F18091620381FD0E9408167A
:102AD000E12C01E0DF244501F1E08F1A91088D2DF2
:102AE0008023F9F0E9821A8391E08F2D802309F485
:102AF00090E09B830E94D5228160782F9D838C83F8
:102B000049815A816B818D810E943E1649815A818B
:102B10006B817C818D810E944F22F401808180270E
:102B20008083E394000FF8E0EF12D9CF1F5F1031DC
:102B300009F0C0CF8FEF89838A831B820E94D52240
:102B40008160782F9D838C8349815A816B818D812F
:102B50000E943E160E944E220E94B0250E947D08CF
:102B60000E947E1490918602891749F10E947E147A
:102B700080938602909162039570953061F41F9264
:102B80008F9387E794E09F938F930E949A060F900C
:102B90000F900F900F90809186020F900F900F90E2
:102BA0000F900F90DF91CF911F910F91FF90EF90B9
:102BB000DF90BF90AF909F908F900C9460220F9009
:102BC0000F900F900F900F90DF91CF911F910F9169
:102BD000FF90EF90DF90BF90AF909F908F900895FF
:102BE0000C94D80A08950895CF93C62F0E94D20A54
:102BF00021E030E002C0220F331FCA95E2F790E0D7
:102C00002823392381E0232B09F480E0CF91089514
:102C1000EF92FF920F931F93CF93DF9380E994E09D
:102C20000E940106D0E0C0E082E3E82E81E0F82EA9
:102C300002E814E08C2F0E94D20A0E943622FF92F2
:102C4000EF921F928F93DF93CF931F930F930E9466
:102C50009A0621968DB79EB708960FB6F8949EBF38
:102C60000FBE8DBFC031D10529F7DF91CF911F91E4
:102C70000F91FF90EF90089508950895CF93DF93FB
:102C8000CDB7DEB72B970FB6F894DEBF0FBECDBF22
:102C90004F83588769877A878B878A859B85892B9D
:102CA00021F0842F85238F3FD1F41E8285E0FE0121
:102CB0003796DE01119601900D928A95E1F74981D0
:102CC0005A816B817C818D819E812B960FB6F89401
:102CD000DEBF0FBECDBFDF91CF910C94D61D6985AD
:102CE0007A858B850E944F22E0CFCF93C82F88230F
:102CF00009F49EC08238C1F40E947E1481FD98C000
:102D000089E30E9490210E940B222FEF81EE94E034
:102D1000215080409040E1F700C0000089E30E940C
:102D2000AD21CF910C940B228338A1F40E947E1424
:102D300080FD7EC083E50E9490210E940B222FEF30
:102D400081EE94E0215080409040E1F700C0000007
:102D500083E5E5CF8438A1F40E947E1482FD68C02B
:102D600087E40E9490210E940B222FEF81EE94E0D5
:102D7000215080409040E1F700C0000087E4CFCFB1
:102D80008CEF8C0F813A20F080E58C0F8E3248F466
:102D90008C2F0E94FC2881114BC08C2F0E94902107
:102DA000C0CF80E28C0F883048F4C77081E001C04A
:102DB000880FCA95EAF70E94D021B3CF8BE58C0F1C
:102DC000833068F481E890E0C53A31F083E890E020
:102DD000C63A11F482E890E0CF910C94E11488E5B2
:102DE0008C0F853128F582EE90E0C83AF1F089EE3B
:102DF00090E0C93AD1F08AEE90E0CA3AB1F085EBA2
:102E000090E0CB3A91F086EB90E0CC3A71F083EB16
:102E100090E0CD3A51F084EB90E0CE3A31F090E082
:102E200080E0CF3A11F487EB90E0CF910C940E152F
:102E3000CF910895882309F46AC08238B9F40E94BA
:102E40007E1481FF64C089E30E9490210E940B22BE
:102E50002FEF81EE94E0215080409040E1F700C0D8
:102E6000000089E30E94AD210C940B228338A1F469
:102E70000E947E1480FF4BC083E50E9490210E9437
:102E80000B222FEF81EE94E0215080409040E1F73B
:102E900000C0000083E5E6CF8438A1F40E947E14D0
:102EA00082FF35C087E40E9490210E940B222FEF01
:102EB00081EE94E0215080409040E1F700C0000096
:102EC00087E4D0CF9CEF980F913A60F290E5980F8D
:102ED0009E3240F290E2980F983050F4877091E063
:102EE00001C0990F8A95EAF7892F0E94D621BCCF9D
:102EF0009BE5980F933020F490E080E00C94E1146F
:102F0000885A853120F490E080E00C940E150895E5
:102F1000882321F00E94D0210C940B22089588234D
:102F200021F00E94D6210C940B220895AF92BF92FB
:102F3000CF92DF92EF92FF920F931F93CF93DF9385
:102F4000CDB7DEB729970FB6F894DEBF0FBECDBF61
:102F50005C010E946222811114C085E0F501DE014E
:102F6000119601900D928A95E1F7F5018381948184
:102F7000009739F040815181242F25232F3F09F0FC
:102F800024C329960FB6F894DEBF0FBECDBFDF91E4
:102F9000CF911F910F91FF90EF90DF90CF90BF9056
:102FA000AF900895F12FFF70EF2E107F19F0E2948B
:102FB00040EFE422FF20D1F0EE2029F08E2D0E9478
:102FC000E4210E940B22802F29960FB6F894DEBFD1
:102FD0000FBECDBFDF91CF911F910F91FF90EF906A
:102FE000DF90CF90BF90AF900C947516802F0E9409
:102FF0001A17EE2031F28E2D0E94EA2129960FB683
:10300000F894DEBF0FBECDBFDF91CF911F910F911E
:10301000FF90EF90DF90CF90BF90AF900C940B2279
:10302000212F2F70D22E107F103219F0D29430EF52
:10303000D322002379F0013009F455C0FF2009F4B0
:1030400063C0EE2059F0F501858180FFBCCF8F7001
:10305000858304C0FF2059F1E11013C08D2D2996FE
:103060000FB6F894DEBF0FBECDBFDF91CF911F9199
:103070000F91FF90EF90DF90CF90BF90AF900C94A6
:10308000881731E08D2DE312EACF29960FB6F89418
:10309000DEBF0FBECDBFDF91CF911F910F91FF908B
:1030A000EF90DF90CF90BF90AF900C94F521E1109E
:1030B00015C00E94F8218D2D29960FB6F894DEBF19
:1030C0000FBECDBFDF91CF911F910F91FF90EF9079
:1030D000DF90CF90BF90AF900C948F1741E0E41633
:1030E00009F44FCFE6CFFF2051F055E05E1508F40C
:1030F00048CF0E94CD218D2109F4B0CFDCCF84E0F0
:103100008E1508F43ECFD7CFEE20A9F2802F299656
:103110000FB6F894DEBF0FBECDBFDF91CF911F91E8
:103120000F91FF90EF90DF90CF90BF90AF900C94F5
:103130001A17812F869586958370D9F0813009F012
:1031400020CFC8019370F11002C090E080E0299672
:103150000FB6F894DEBF0FBECDBFDF91CF911F91A8
:103160000F91FF90EF90DF90CF90BF90AF900C94B5
:103170000E15C8019370F11002C090E080E029960E
:103180000FB6F894DEBF0FBECDBFDF91CF911F9178
:103190000F91FF90EF90DF90CF90BF90AF900C9485
:1031A000E114802FFF20A1F00E943C2429960FB645
:1031B000F894DEBF0FBECDBFDF91CF911F910F916D
:1031C000FF90EF90DF90CF90BF90AF900C942325AD
:1031D0000E94A424EBCF812F837009F08CC0F110E2
:1031E000D0CE202F229526952770220F220F802FD8
:1031F0008F7090E0B0E0A0E06C017D01022E04C071
:10320000CC0CDD1CEE1CFF1C0A94D2F760E070E0D1
:10321000CB0104FF0FC06FE070E080E090E004C0DD
:10322000660F771F881F991F2A95D2F760957095B2
:10323000809590951695169513701230C9F113303C
:1032400009F454C09B01AC012C293D294E295F296A
:103250002E833F83488759871130A1F0CA01B901F5
:1032600029960FB6F894DEBF0FBECDBFDF91CF9188
:103270001F910F91FF90EF90DF90CF90BF90AF9094
:103280000C94521F6E817F818885998529960FB68F
:10329000F894DEBF0FBECDBFDF91CF911F910F918C
:1032A000FF90EF90DF90CF90BF90AF900C94221FD3
:1032B0009B01AC012C293D294E295F292E833F8398
:1032C00048875987CA01B90129960FB6F894DEBF1D
:1032D0000FBECDBFDF91CF911F910F91FF90EF9067
:1032E000DF90CF90BF90AF900C94821F0E94521F2E
:1032F000C701B601CBCF8695FF2011F0812F8170D9
:10330000882309F43ECE202F229526952770220F80
:10331000220F802F8F7090E0B0E0A0E06C017D0163
:10332000022E04C0CC0CDD1CEE1CFF1C0A94D2F74C
:1033300060E070E0CB0104FF0FC06FE070E080E060
:1033400090E004C0660F771F881F991F2A95D2F757
:10335000609570958095909516951695137012301E
:10336000C9F1133009F454C09B01AC012C293D294B
:103370004E295F292E833F83488759871130A1F05A
:10338000CA01B90129960FB6F894DEBF0FBECDBFB2
:10339000DF91CF911F910F91FF90EF90DF90CF9031
:1033A000BF90AF900C949B206E817F81888599851A
:1033B00029960FB6F894DEBF0FBECDBFDF91CF9137
:1033C0001F910F91FF90EF90DF90CF90BF90AF9043
:1033D0000C9473209B01AC012C293D294E295F29B7
:1033E0002E833F8348875987CA01B90129960FB6B2
:1033F000F894DEBF0FBECDBFDF91CF911F910F912B
:10340000FF90EF90DF90CF90BF90AF900C94C320CF
:103410000E949B20C701B601CBCF013F09F464C0D5
:10342000F0F4003E90F4003C90F0812F8F71102F4B
:103430001071FF2081F10E94DC1F802F8295807F18
:1034400011110DCE802F8F700ACE003F71F1FF2039
:1034500009F488C0E110B7CD812F8F7149C0023FB8
:1034600009F458C0033F99F7FF2009F469C0812F80
:103470008F7129960FB6F894DEBF0FBECDBFDF91D6
:10348000CF911F910F91FF90EF90DF90CF90BF9061
:10349000AF900C94B71F0E940D20802F8295807FE3
:1034A00011110ACE802F8F7007CEFF20C1F034E0BB
:1034B0003E1508F466CD812F8F7129960FB6F894CA
:1034C000DEBF0FBECDBFDF91CF911F910F91FF9057
:1034D000EF90DF90CF90BF90AF900C94422045E0EA
:1034E0004E1508F44ECDE7CF812F8F71FF20B1F03C
:1034F00029960FB6F894DEBF0FBECDBFDF91CF91F6
:103500001F910F91FF90EF90DF90CF90BF90AF9001
:103510000C94DC1F812F8F71FF2051F329960FB679
:10352000F894DEBF0FBECDBFDF91CF911F910F91F9
:10353000FF90EF90DF90CF90BF90AF900C940D2054
:1035400029960FB6F894DEBF0FBECDBFDF91CF91A5
:103550001F910F91FF90EF90DF90CF90BF90AF90B1
:103560000C94B21FE110D2CD812F8F71D7CF412F94
:103570004F70602FC5010E94AD2329960FB6F894B5
:10358000DEBF0FBECDBFDF91CF911F910F91FF9096
:10359000EF90DF90CF90BF90AF900C94741E412FAE
:1035A0004F70602FC50129960FB6F894DEBF0FBE8D
:1035B000CDBFDF91CF911F910F91FF90EF90DF90E2
:1035C000CF90BF90AF900C94B023F280E580E2944E
:1035D0002FE0E222782F9D838C836F2D8D810E94B6
:1035E000EC208C010E94EB200E94171FE12FE29536
:1035F000EF70F0E0E858FA4F0C94A32B0E94F221F0
:103600000E94BF210E940B220E9498260E9423251F
:1036100090E080E00E94E11490E080E00C940E15B0
:103620000E94E1210C94FE1ACF93DF9300D000D0CA
:103630000F92CDB7DEB76B837C838D838C819D81A8
:10364000892B21F0842F85238F3FD1F480E00CC09B
:1036500080E2820F883058F1283E70F4203E38F521
:10366000245081E0213A90F70F900F900F900F9027
:103670000F90DF91CF91089581E0203F39F7F4CF8B
:103680006B817C818D810E94EC20282F892F82956F
:103690008F70903C70F48A30F8F6825F8F708230C1
:1036A000A8F6253AA8F68EEF820F8230C8F281E0A4
:1036B000DBCF8C3011F08F3049F693FB882780F9EF
:1036C000D3CFCF93DF9300D000D00F92CDB7DEB72A
:1036D0000F900F900F900F900F90DF91CF91089562
:1036E000CF93DF9300D000D000D0CDB7DEB72696C1
:1036F0000FB6F894DEBF0FBECDBFDF91CF91089516
:10370000CF93DF93C0919702809198028C1303C0EE
:10371000DF91CF910895D0E0CE0166E070E00E9485
:103720007E2BFC01E756FD4F408151816281738100
:10373000848195810E94701B2196C770E5CF4091CE
:10374000C9025091CA026091CB027091CC02809163
:10375000CD029091CE020C94701BFF920F931F9399
:10376000CF93DF938091CE02807FB9F48091CB021A
:10377000882399F020919702009198024091C90204
:103780001091CA02A091CC02B091CD02F42EF12288
:10379000ED01C095D095021306C0DF91CF911F9126
:1037A0000F91FF90089530E0109719F08FEFF81205
:1037B00007C02F5F3F4F2770EECF8C0F9D1F18C0A3
:1037C000C90166E070E00E947E2BFC01E756FD4FC8
:1037D00081818113EECF80818413EBCF82818111AF
:1037E000E8CF838194818A179B0738F38A1B9B0B50
:1037F000883C9105F0F68091CE028F7080618093B5
:10380000CE02C90166E070E00E947E2BFC01E25608
:10381000FD4F90819F709061908389EC92E00E94AF
:103820009617DF91CF911F910F91FF900C94801B01
:103830009F92AF92BF92CF92DF92EF92FF920F933F
:103840001F93CF93DF93CDB7DEB72B970FB6F894C6
:10385000DEBF0FBECDBF7C0185E0F701DE0117960C
:1038600001900D928A95E1F7D7014C9111962C9118
:1038700011971296DC90129713960D911C918091DE
:10388000CC029091CD02009709F47AC13091C9021F
:103890005091CA02652F63236F3F09F471C1909064
:1038A000CB02992009F404C10817190708F43FC096
:1038B000F801E81BF90BCF01CC24C394883C910597
:1038C00008F0C12C89ECA82E82E0B82E8091CE029F
:1038D000982F907FCC2009F4C2C0911186C0CD2CC6
:1038E00052132AC0341328C0D11026C08F708061B3
:1038F0008093CE020E949F1BC5010E949617809163
:10390000CE02D70115968C938C2D2B960FB6F8947A
:10391000DEBF0FBECDBFDF91CF911F910F91FF9002
:10392000EF90DF90CF90BF90AF909F9008958095DB
:103930009095800F911FC0CF0115110529F0842F9C
:1039400082238F3F09F02FC180E0B82FB170BB2ECA
:10395000E09197023091980280FD20C0DD20A1F215
:103960008091CE0281608093CE02C12CCDCFF0E059
:10397000CF0166E070E00E947E2BDC01A756BD4FB0
:1039800011968C911197821307C08C91841304C0F7
:1039900012968C918D11E2CF3196E770E313E7CF49
:1039A000702F1B870A87522F6D2D8B850E94EC206C
:1039B000292F22952F70903260F0225F2F702230D5
:1039C00078F49F7051F0F7019581907F31F4B12C1C
:1039D0000AC09F7011F08823D1F3805E8830B8F35D
:1039E000C7010E949617CB2C8FCF521306C03413F9
:1039F00004C0D701DD2009F481C04F832887D98610
:103A0000702F1B870A87522F6D2D8B850E94141BE8
:103A1000882309F4C4C0DD2009F4C1C08091CE021E
:103A2000803270F02091C9023091CA023A83298312
:103A30001B821D830C838E83CE0101960E949617F4
:103A400086E0F701A9ECB2E001900D928A95E1F7CA
:103A50000E94AD1B0E949F1BCC24C39455CF911193
:103A600014C0702F1B870A87522F6D2D8B850E94E3
:103A7000611B89EC92E00E94961786E0F501119295
:103A80008A95E9F70E949F1B3FCF5213B6CF34139C
:103A9000B4CFD110B2CFD70115968C93C7010E9435
:103AA000961786E0F50111928A95E9F7C92C2CCF7B
:103AB0000817190788F1B801681B790BCB01C12CD5
:103AC000883C910508F04CC0CD2CDD2009F467C07E
:103AD000521330C034132EC08091CE0280FD21C01D
:103AE000982F907FF1F0D70115968C931597903F02
:103AF00039F0982F907F905F8F70892B15968C935B
:103B0000C7010E94961786E0F701A9ECB2E0019088
:103B10000D928A95E1F7B6CF80959095800F911F11
:103B2000CECF86E0F701A9ECB2E001900D928A9524
:103B3000E1F7EACE4F832887D986702F1B870A8743
:103B4000522F6D2D8B850E94141B811179CF80918E
:103B5000CE0281608093CE02C7010E949617D4CE18
:103B6000702F1B870A87522F6D2D8B850E94611B3A
:103B700086E0E9ECF2E0DF011D928A95E9F782CF59
:103B8000DD2069F04F832887D986702F1B870A872D
:103B9000522F6D2D8B850E94141B811151CFC701AF
:103BA0000E94961759CF81E08D25CFCECF93DF931A
:103BB000CDB7DEB72C970FB6F894DEBF0FBECDBFE2
:103BC0004F83588769877A878B879C87CE010796B2
:103BD0000E94181C8823D1F08A859B85892B39F097
:103BE0004F815885842F85238F3F09F076C08091BF
:103BF000970290919802891349C02C960FB6F894B9
:103C0000DEBF0FBECDBFDF91CF91089586E0FE01EC
:103C10003796DE01119601900D928A95E1F78A851B
:103C20009B85892B21F388859F8189238F3FF9F21A
:103C30008091980290E09C012F5F3F4F27703327BF
:103C4000409197024217130671F40E94101B1092C4
:103C500098021092970286E0E9ECF2E0DF011D92F3
:103C60008A95E9F7C4CF66E070E00E947E2BDC0104
:103C7000A756BD4F86E0FE01319601900D928A95C0
:103C8000E1F7209398020E94801BB1CF90E066E09C
:103C900070E00E947E2B87569D4F0E94181C88233F
:103CA00009F4ABCF8091970290E066E070E00E944B
:103CB0007E2BFC01E756FD4F40815181628173816B
:103CC000848195810E94701B8091970290E00196FB
:103CD00087709927809397028ACF69857A858B852B
:103CE0009C850E94701B83CFDF92EF92FF920F930F
:103CF0001F93CF93DF939C01892BB9F0F12CE12C1A
:103D0000DD24D394E9012196F9018491853709F4E2
:103D10006EC098F4843709F45BC0843008F073C037
:103D2000813011F1823009F43DC0DF91CF911F91B4
:103D30000F91FF90EF90DF900895883709F460C0ED
:103D400058F4863709F458C0873779F78F2D0E94C9
:103D5000DE210E940B2220C09CE7980F903728F7A5
:103D60008F770E941A1718C089010E5F1F4FFE013E
:103D7000849190E2980F983060F48770FD2D01C017
:103D8000FF0F8A95EAF78F2F0E94E4210E940B22F1
:103D900002C00E947516E8018E2D815008F036C0D1
:103DA0009E01B0CF89010E5F1F4FFE01849190E20A
:103DB000980F983050F48770FD2D01C0FF0F8A9541
:103DC000EAF78F2F0E94EA21E1CF0E941A17E3CF72
:103DD0002E5F3F4FFE01C491C15010F4E901DCCFCA
:103DE0008FE99FE00197F1F700C00000F5CF2E5F4B
:103DF0003F4FFE01E490F2CF0E94CD21F82ECCCFB0
:103E00000E94E121A6CF0E947516C6CFEFE9FFE020
:103E10003197F1F700C00000C0CF60934F0370935B
:103E2000500380935103909352030C945F220895A2
:103E300060935303709354038093550390935603F8
:103E40000C945E22CF93DF9300D000D0CDB7DEB7C5
:103E500069837A838B839C8380915303909154036D
:103E6000A0915503B091560329813A814B815C8121
:103E7000282B392B4A2B5B2B29833A834B835C837A
:103E800020935303309354034093550350935603A8
:103E9000CA01B9010F900F900F900F90DF91CF9151
:103EA0000C945E22CF93DF9300D000D0CDB7DEB765
:103EB00069837A838B839C8380915303909154030D
:103EC000A0915503B091560329813A814B815C81C1
:103ED000282339234A235B2329833A834B835C833A
:103EE0002093530330935403409355035093560348
:103EF000CA01B9010F900F900F900F90DF91CF91F1
:103F00000C945E22CF93DF9300D000D0CDB7DEB704
:103F100069837A838B839C838091530390915403AC
:103F2000A0915503B091560329813A814B815C8160
:103F3000282739274A275B2729833A834B835C83C9
:103F400020935303309354034093550350935603E7
:103F5000CA01B9010F900F900F900F90DF91CF9190
:103F60000C945E2260E070E0CB010C940D1F0F9367
:103F70001F93CF93DF9300D000D0CDB7DEB741E0E1
:103F800050E060E070E08A019B0104C0000F111F47
:103F9000221F331F8A95D2F709831A832B833C8310
:103FA000C901B8010F900F900F900F90DF91CF9142
:103FB0001F910F910C940D1F0F931F93CF93DF93BD
:103FC00000D000D0CDB7DEB741E050E060E070E057
:103FD00004C0440F551F661F771F8A95D2F7809142
:103FE0004F0390915003A0915103B09152038A0165
:103FF0009B01082B192B2A2B3B2B09831A832B831C
:104000003C83C901B8010F900F900F900F90DF9182
:10401000CF911F910F910C940D1F0F931F93CF936E
:10402000DF9300D000D0CDB7DEB741E050E060E0D4
:1040300070E004C0440F551F661F771F8A95D2F7A2
:10404000409550956095709580914F0390915003E5
:10405000A0915103B09152038A019B0108231923B7
:104060002A233B2309831A832B833C83C901B8018C
:104070000F900F900F900F90DF91CF911F910F91A4
:104080000C940D1F0F931F93CF93DF9300D000D09C
:10409000CDB7DEB741E050E060E070E004C0440F0F
:1040A000551F661F771F8A95D2F780914F03909115
:1040B0005003A0915103B09152038A019B0108273C
:1040C00019272A273B2709831A832B833C83C9019D
:1040D000B8010F900F900F900F90DF91CF911F912B
:1040E0000F910C940D1FCF93DF9300D000D0CDB76C
:1040F000DEB769837A838B839C8380914F03909191
:104100005003A0915103B091520329813A814B8110
:104110005C81282B392B4A2B5B2B29833A834B83D9
:104120005C83CA01B9010F900F900F900F90DF913F
:10413000CF910C940D1FCF93DF9300D000D0CDB75B
:10414000DEB769837A838B839C8380914F03909140
:104150005003A0915103B091520329813A814B81C0
:104160005C81282339234A235B2329833A834B83A9
:104170005C83CA01B9010F900F900F900F90DF91EF
:10418000CF910C940D1FCF93DF9300D000D0CDB70B
:10419000DEB769837A838B839C8380914F039091F0
:1041A0005003A0915103B091520329813A814B8170
:1041B0005C81282739274A275B2729833A834B8349
:1041C0005C83CA01B9010F900F900F900F90DF919F
:1041D000CF910C940D1F08954F925F926F927F9232
:1041E0009F92AF92BF92CF92DF92EF92FF920F9386
:1041F0001F93CF93DF9300D000D00F92CDB7DEB7DF
:1042000049835A836B837C838D838C819D81892B29
:1042100031F0F42EE52E842F85238F3F59F590E061
:1042200080E00F900F900F900F900F90DF91CF9143
:104230001F910F91FF90EF90DF90CF90BF90AF90C4
:104240009F907F906F905F904F9008956F2D7E2D7F
:104250008A2D0E947C230197C1F13CC0F80183E0C4
:10426000EE0FFF1F8A95E1F7E153FD4FEC0DFD1DA9
:1042700090803BC0052F10E0C42ED12C8B81882369
:1042800069F340904F035090500360905103709039
:1042900052038091530390915403A0915503B09120
:1042A0005603482A592A6A2A7B2A2FE1A22EB12CCA
:1042B0009A2CD301C2010A2C04C0B695A7959795F4
:1042C00087950A94D2F780FDC1CF81E0A81AB10882
:1042D00078F7912CF80193E0EE0FFF1F9A95E1F724
:1042E000E153FD4FEC0DFD1D9082F982EA82698158
:1042F0007A81892D0F900F900F900F900F90DF9182
:10430000CF911F910F91FF90EF90DF90CF90BF90D2
:10431000AF909F907F906F905F904F900C947C2314
:104320002091240130912501F90132969FEF40E060
:104330005191851751F09F3F19F4511101C0942FED
:104340004F5F4630A9F79F3F09F40895290F311DAB
:1043500097FD3A95F90182830895209124013091C7
:104360002501F9013296285F3F4F9191891303C0CF
:10437000DF0111971C92E217F307B9F7089581E066
:1043800090E0E0912401F0912501E80FF91F1082DF
:10439000019688309105A9F70895809161030895E9
:1043A00090916103982B909361030895982F9095B5
:1043B0008091610389238093610308958093610351
:1043C000089510926103089590916003982B909343
:1043D00060030895982F90958091600389238093BE
:1043E0006003089510926003089580935703089521
:1043F0001092570308952091240130912501F9016D
:104400003196285F3F4F80E0919191118F5FE217C5
:10441000F307D1F70895E0912401F09125018091EF
:1044200061038083E0912401F091250180819091C6
:104430006003892B808390915703992361F0E09169
:104440002401F09125018081892B80830E94FB212A
:1044500081111092570380912401909125010C94B1
:104460008A1490935301809352010895829590E0AD
:104470009C01220F331F220F331F2C7C95958795AB
:10448000959587958373282B30E0C901880F991F74
:104490008A7A359527952575822B08950895CF93AF
:1044A000DF9300D000D00F92CDB7DEB70F900F9002
:1044B0000F900F900F90DF91CF9108950895089578
:1044C0000C94F01580E0089580917703843021F1F9
:1044D0001092630388E190E020E40FB6F894A89569
:1044E000809360000FBE2093600083B7817F84605B
:1044F00083BF83B7816083BF7894889583B78E7FAD
:1045000083BF0FB6F894A89580916000886180936E
:104510006000109260000FBE0895CF930E943C1679
:104520000E94FE090E943D16C0E08C2F0E94D20A14
:10453000811105C0CF5FC031C1F7CF91089581E0EF
:10454000FCCF0E94F2150C94101B1F921FB61F92F5
:1045500011248F939F93AF93BF9380916303811135
:1045600013C08091640390916503A0916603B0919C
:1045700067034196A11DB11D809364039093650369
:10458000A0936603B0936703BF91AF919F918F9102
:104590001F901FBE1F90189582E084BD93E095BDCB
:1045A0009AEF97BD80936E0008952FB7F89480918D
:1045B000640390916503A0916603B09167032FBFD8
:1045C0000895CF93DF9300D000D0CDB7DEB78FB77B
:1045D000F8942091640330916503409166035091F3
:1045E000670329833A834B835C838FBF69817A8118
:1045F0008B819C810F900F900F900F90DF91CF9146
:104600000895CF92DF92EF92FF929C014FB7F894FA
:104610008091640390916503A0916603B091670354
:104620004FBF6C017D01EE24FF24A90170E060E022
:10463000C416D506E606F70638F0821B930BFF90EA
:10464000EF90DF90CF9008950197F7CF1F921FB69C
:104650001F9211248F939F93AF93BF938091640314
:1046600090916503A0916603B09167030196A11D27
:10467000B11D8093640390936503A0936603B09388
:104680006703BF91AF919F918F911F901FBE1F90A5
:1046900018950E94D811F8942FEF87EA91E62150DF
:1046A00080409040E1F700C0000087E090EBDC0123
:1046B0008093800390938103A0938203B09383033C
:1046C00088E19CE00FB6F894A895809360000FBE37
:1046D00090936000FFCFE92FF0E093E0EE0FFF1F13
:1046E0009A95E1F7E80FF11DEC58FF4F9491892F4F
:1046F0008F7092959F700895CF93C82FCB010E9421
:104700006B23292F30E044E0220F331F4A95E1F755
:10471000482F50E0282B352B2038310521F480E03C
:1047200090E0CF9108952C2F30E083E0220F331FCB
:104730008A95E1F7E92FE770E20FF32FF11D94E07E
:10474000EE0FFF1F9A95E1F7E40FF51FEE0FFF1F25
:10475000E050F84985919491E4CF90E080E008958D
:10476000089580916A0380FF14C08091290190E030
:1047700065E070E00E947E2BBC017595679575958C
:10478000679560387105C8F561157105C1F1862F0F
:10479000089581FF0BC08091290190E065E070E0F1
:1047A0000E947E2BBC0175956795EBCF82FF09C0F7
:1047B0008091290190E065E070E00E947E2BBC01B1
:1047C000E0CF80916B038823A9F0209128016091AC
:1047D000290170E0821710F0CB01EDCF90E00E942C
:1047E0007E2B65E070E00E947E2B622F70E00E94BD
:1047F0008F2BC7CF65E070E0CACF8FE7089581E0C7
:10480000089580916A0380FF0CC06091270170E0D9
:1048100075956795759567956115710559F1862FA1
:10482000089581FF06C06091270170E07595679536
:10483000F3CF6091270170E082FD0CC060916B03A3
:104840006623A9F0209126018091270190E062174C
:1048500030F0BC0160387105F8F28FE7089570E020
:104860000E947E2B622F70E00E948F2BF3CF61E0BD
:1048700070E0D5CF81E00895803F31F40E94B123EC
:10488000819580936E030895813F19F40E94B123AE
:10489000F8CF823F31F40E94B123819580936D035C
:1048A0000895833F19F40E94B123F8CF893F29F47A
:1048B0000E94012480936F0308958A3F21F40E948F
:1048C00001248195F7CF8B3F31F40E94012481951B
:1048D0008093700308958C3F19F40E940124F8CF4F
:1048E000843F31F480916C03816080936C03089560
:1048F000853F21F480916C038260F7CF863F21F4DD
:1049000080916C038460F1CF873F21F480916C0328
:104910008860EBCF883F21F480916C038061E5CF04
:104920008D3F31F480916A03816080936A0308951A
:104930008E3F21F480916A038260F7CF8F3FB9F7F1
:1049400080916A038460F1CF90916D03803F41F4C0
:1049500080916E0387FD10926E03992371F0089584
:10496000813F29F480916E031816ACF3F6CF823F95
:1049700081F497FFF2CF10926D0380916E039091B6
:104980006F03892B90917003892B49F710926B0369
:104990000895833F19F4191674F3DFCF893F39F472
:1049A00080916F031816CCF610926F03D6CF8A3F12
:1049B00029F480916F0387FFD0CFF6CF8B3F39F476
:1049C0008091700387FFC9CF10927003C6CF8C3FD0
:1049D00029F4809170031816BCF3BFCF843F31F4E3
:1049E00080916C038E7F80936C03B7CF853F21F459
:1049F00080916C038D7FF7CF863F21F480916C030B
:104A00008B7FF1CF873F21F480916C03877FEBCFC1
:104A1000883F21F480916C038F7EE5CF8D3F31F488
:104A200080916A038E7F80936A0397CF8E3F21F433
:104A300080916A038D7FF7CF8F3F09F08ECF8091F1
:104A40006A038B7FF0CF8091620383FF7EC085EC89
:104A500094E00E94010680916C031F928F9380EC7A
:104A600094E09F938F930E949A068EEB94E00E94AD
:104A7000010680916D03282F082E000C330B3F9305
:104A80008F938BEB94E09F938F930E949A0689EB10
:104A900094E00E94010680916E03282F082E000CDE
:104AA000330B3F938F9386EB94E09F938F930E94F9
:104AB0009A0684EB94E00E94010680916F03282FF0
:104AC000082E000C330B3F938F9381EB94E09F9360
:104AD0008F930E949A068FEA94E00E9401068091CB
:104AE0007003282F082E000C330B3F938F938CEA12
:104AF00094E09F938F930E949A0689EA94E00E9423
:104B0000010680916B031F928F9386EA94E09F9336
:104B10008F930E949A0684EA94E00E940106809195
:104B20006A031F928F9381EA94E09F938F930E9470
:104B30009A068EE994E00E9401068DB79EB74C96C6
:104B40000FB6F8949EBF0FBE8DBF8CE693E00E9417
:104B5000D6140E94D5229093690380936803089528
:104B60001F93CF93DF9300D000D000D0CDB7DEB736
:104B700080916803909169030E940123FC012091B8
:104B80006B0340912A0150E0211108C080912B0154
:104B900090E06AE070E00E947E2BAC01E417F5071C
:104BA00088F090916D0330916E03398310916F03FB
:104BB000409170034E8391110FC0832F812B842B62
:104BC00009F0B2C026960FB6F894DEBF0FBECDBF77
:104BD000DF91CF911F9108952F3F19F02F5F209300
:104BE0006B03191624F40E94B12380936D03809106
:104BF0006D0387FF05C00E94B123819580936D03EB
:104C00005981151624F40E94B12380936E0380917C
:104C10006E0387FF05C00E94B123819580936E03C8
:104C200080916D03882309F455C090916E039D8394
:104C3000992309F44FC0282F880F330B440B550BD1
:104C400029833A834B835C83CA01B9010E947D2A80
:104C500023E333E343E35FE369837A838B839C83BA
:104C600069817A818B819C810E94E12A69837A83A0
:104C70008B839C8369817A818B819C810E94452AE8
:104C800060936D038D81082E000C990BAA0BBB0B52
:104C900089839A83AB83BC83BC01CD010E947D2AAA
:104CA00023E333E343E35FE369837A838B839C836A
:104CB00069817A818B819C810E94E12A69837A8350
:104CC0008B839C8369817A818B819C810E94452A98
:104CD00060936E03111624F40E94012480936F03E5
:104CE00080916F0387FF05C00E9401248195809306
:104CF0006F039E81191624F40E940124809370038F
:104D00008091700387FF05C00E94012481958093E4
:104D1000700326960FB6F894DEBF0FBECDBFDF91AD
:104D2000CF911F910C9423252F3F09F057CF68CFC7
:104D300085E0ECE6F3E0DF011D928A95E9F7109239
:104D40006B0310926A03089588EE96E00E940106B4
:104D50001F9281E08F931F9285E08F938AE996E0FE
:104D60009F938F930E949A060F900F900F900F9031
:104D70000F900F900895843009F45DC040F48230A4
:104D800061F1833009F440C0813041F008958530ED
:104D900009F468C0863009F47CC0089580912B0125
:104DA000482F460F5527551F4F3F510594F4680F64
:104DB00060932B0180912B011F928F9383ED95E0DF
:104DC0009F938F930E949A060F900F900F900F90D1
:104DD00008958FEF80932B01EDCF80912A01482F0A
:104DE000460F5527551F4F3F510554F4680F6093E8
:104DF0002A0180912A011F928F9381EC95E0E0CFE8
:104E00008FEF80932A01F5CF80912901482F460F1B
:104E10005527551F4F3F510554F4680F60932901E2
:104E2000809129011F928F938EEA95E0C9CF8FEF71
:104E300080932901F5CF80912801482F460F5527EF
:104E4000551F4F3F510554F4680F6093280180911E
:104E500028011F928F9389E995E0B2CF8FEF80935D
:104E60002801F5CF80912701482F460F5527551F60
:104E70004F3F510554F4680F60932701809127013B
:104E80001F928F9380E895E09BCF8FEF809327014F
:104E9000F5CF80912601482F460F5527551F4F3FCC
:104EA000510554F4680F60932601809126011F92EA
:104EB0008F9385E695E084CF8FEF80932601F5CF21
:104EC000843009F44AC038F4823029F18330A1F1EA
:104ED000813041F00895853009F450C0863009F4DE
:104EE0005EC0089580912B01681790F4861B809313
:104EF0002B0180912B011F928F9386E595E09F9364
:104F00008F930E949A060F900F900F900F90089524
:104F100010922B01EECF80912A01681750F4861B66
:104F200080932A0180912A011F928F9384E495E057
:104F3000E6CF10922A01F6CF80912901681750F42C
:104F4000861B80932901809129011F928F9381E311
:104F500095E0D5CF10922901F6CF809128016817EE
:104F600050F4861B80932801809128011F928F9313
:104F70008CE195E0C4CF10922801F6CF80912701F3
:104F8000681750F4861B80932701809127011F9298
:104F90008F9383E095E0B3CF10922701F6CF8091F5
:104FA0002601681750F4861B809326018091260104
:104FB0001F928F9388EE94E0A2CF10922601F6CF35
:104FC000CF93DF9300D000D0CDB7DEB789831F9297
:104FD0008F938DEE97E09F938F930E949A0681E0C6
:104FE00090E0A0E0B0E09C01AD01098004C0220F78
:104FF000331F441F551F0A94D2F729833A834B83EA
:105000005C83CA01B9010E94181F0F900F900F9086
:105010000F900F900F900F900F90DF91CF910C9405
:10502000101B8A3258F4863098F0EAEFE80FE43229
:1050300078F4F0E0E857FA4F0C94A32B833470F423
:105040008A3308F0D3C0853309F4CAC08833F1F03D
:105050008CEA98E00E94010680E00895833409F408
:10506000BFC08834A9F70E94101B83E99AE00E9410
:1050700001062FEF83ED90E3215080409040E1F74F
:1050800000C000000E94492381E0089589E198E072
:105090000E940106F9CF80916203807F80936203B2
:1050A00082EF97E00E94010684EA9AE00E940106DE
:1050B00081E08093720308958091620380FF0AC0AB
:1050C00086E89AE00E94010680916203807F8093C7
:1050D0006203DACF8AE79AE00E94010680916203B8
:1050E0008160F5CF90916203892F8D7F91FF82605F
:1050F0008093620381FF03C08DE69AE0EDCF8FE5D8
:105100009AE0C6CF90916203892F8B7F92FF8460D3
:105110008093620382FF03C080E59AE0DDCF80E4E4
:105120009AE0B6CF90916203892F877F93FF8860C2
:105130008093620383FF03C084E39AE0CDCF87E2CC
:105140009AE0A6CF88E19AE00E94010685EF99E0F7
:105150000E94010680EB99E00E94010688E899E030
:105160000E94010683E499E00E94010687E199E02C
:105170008FCF89E099E00E9401060E947E141F9261
:105180008F938FEE98E09F938F930E949A06809161
:1051900023011F928F9388ED98E09F938F930E9435
:1051A0009A0680917F021F928F9385EC98E09F93DF
:1051B0008F930E949A060E94E1229F938F937F9380
:1051C0006F938EEA98E09F938F930E949A068DB713
:1051D0009EB742960FB6F8949EBF0FBE8DBF54CFB8
:1051E00080E00E94E02750CF8D51FBCF8953F9CF4B
:1051F00080E008950C94F828CF93C82F8091720313
:105200008130B1F0823009F449C081113AC167E0C0
:105210008FE00E94F415882349F08C2F0E94F82813
:1052200081111DC08C2F0E9411288170CF9108958B
:1052300067E08FE00E94F4158111EFCF8C2F0E9460
:10524000FA2881111BC0C431D9F060F4CB3071F061
:10525000C031D1F083EE97E00E94010613C081E0D7
:1052600090E0E3CFC93261F0C833A1F782EF97E055
:105270000E94010689EE97E00E94010681E0D5CFE9
:105280001092720380E0D1CF0E94A42685EE97E0B1
:105290000E94010682E080937203F0CFC93209F4C4
:1052A00046C068F5C33109F451C050F4C73009F461
:1052B000CEC0CB30C9F187E896E00E9401061DC040
:1052C000C431A9F1CE51C630B0F7EC2FF0E0E95B64
:1052D000FE4F80818093710380917103882309F4CC
:1052E000CDC01F928F9381E896E09F938F930E9489
:1052F0009A060F900F900F900F9081E097CFCE34C9
:1053000009F4A3C050F4C83379F06AE0CB3499F6BD
:10531000809171030E94BB26DFCFC13509F48FC095
:1053200061E0C235A9F3C7CF0E94A426D5CF8091F2
:105330007103882319F010927103CECF86E996E0AD
:105340000E94010681E08093720370CF80E796E0AF
:105350000E9401068EE596E00E94010680912B01D5
:105360001F928F938BE596E09F938F930E949A06EE
:1053700089E596E00E94010687E496E00E94010616
:1053800080912A011F928F9384E496E09F938F93DC
:105390000E949A0682E496E00E94010683E396E06A
:1053A0000E940106809129011F928F9380E396E06D
:1053B0009F938F930E949A068EE296E00E940106C8
:1053C0008DE196E00E940106809128011F928F9343
:1053D0008AE196E09F938F930E949A0688E196E077
:1053E0000E94010683E096E00E9401068091270159
:1053F0001F928F9380E096E09F938F930E949A066E
:105400008EEF95E00E94010687EE95E00E9401066E
:10541000809126011F928F9384EE95E09F938F9346
:105420000E949A0682EE95E00E9401068DB79EB713
:1054300048960FB6F8949EBF0FBE8DBF4DCF61E06A
:10544000809171030E94602747CF6AE0F9CF8EE117
:1054500080932B0182E380932A018AE080932901C3
:1054600084E18093280188E08093270188E280937B
:10547000260189E896E00E9401062ECF8EE796E08D
:105480001CCF1092720380E0D1CE0E944C2A689407
:10549000B1110C94DB2A08950E94C02A88F09F570E
:1054A00098F0B92F9927B751B0F0E1F0660F771F48
:1054B000881F991F1AF0BA95C9F714C0B13091F03E
:1054C0000E94DA2AB1E008950C94DA2A672F782F27
:1054D0008827B85F39F0B93FCCF386957795679503
:1054E000B395D9F73EF490958095709561957F4F6F
:1054F0008F4F9F4F0895E89409C097FB3EF4909515
:105500008095709561957F4F8F4F9F4F9923A9F09C
:10551000F92F96E9BB279395F6958795779567952B
:10552000B795F111F8CFFAF4BB0F11F460FF1BC06F
:105530006F5F7F4F8F4F9F4F16C0882311F096E902
:1055400011C0772321F09EE8872F762F05C06623B0
:1055500071F096E8862F70E060E02AF09A95660F69
:10556000771F881FDAF7880F9695879597F9089522
:1055700057FD9058440F551F59F05F3F71F0479504
:10558000880F97FB991F61F09F3F79F087950895E9
:10559000121613061406551FF2CF4695F1DF08C008
:1055A000161617061806991FF1CF86957105610525
:1055B00008940895E894BB2766277727CB0197F9CD
:1055C00008950E94F32A0C946D2B0E945F2B38F0F3
:1055D0000E94662B20F0952311F00C94562B0C940E
:1055E0005C2B0C94DB2A0E94B82A78F39923C9F328
:1055F0005523B9F3950F50E0551FAA27EE27FF2733
:10560000BB2700240894679520F4E20FF31FB41F12
:105610000A1E220F331F441FAA1F6695A9F777950C
:1056200030F4F30FB41F0A1E121E08F46395330FF3
:10563000441FAA1F221F769599F7879520F4B40F6F
:105640000A1E121E631F440FAA1F221F331F8695B6
:10565000A9F7862F712D602D11249F5750409AF085
:10566000F1F088234AF0EE0FFF1FBB1F661F771F64
:10567000881F91505040A9F79E3F510580F00C942F
:10568000562B0C94DB2A5F3FE4F3983ED4F38695C7
:1056900077956795B795F795E7959F5FC1F7FE2BCF
:1056A000880F911D9695879597F9089597F99F67AB
:1056B00080E870E060E008959FEF80EC089500249A
:1056C0000A941616170618060906089500240A9467
:1056D00012161306140605060895092E0394000CED
:1056E00011F4882352F0BB0F40F4BF2B11F460FF7C
:1056F00004C06F5F7F4F8F4F9F4F08950024552741
:1057000004C0080E591F880F991F009729F076953D
:105710006795B8F37105B9F7802D952F089597FB1C
:10572000072E16F4009407D077FD09D00E94A92B0C
:1057300007FC05D03EF4909581959F4F0895709594
:1057400061957F4F0895EE0FFF1F0590F491E02DB6
:105750000994AA1BBB1B51E107C0AA1FBB1FA617B8
:10576000B70710F0A61BB70B881F991F5A95A9F70A
:0E57700080959095BC01CD010895F894FFCF6F
:10577E00FFFFA514000069FFFF27E78C000000FF64
:10578E00FF94640076010000FFE90C790D560D1FA1
:10579E000DEC0C0158032808140A321E79657300AB
:1057AE006E6F00404D36220604B90383036103ED8C
:1057BE000206031F03380301020304050607080946
:0257CE000000D9
:106800008800EA44E944E244040005000600070069
:10681000080009000A000B000C000D000E000F001C
:1068200010001100120013001400150016001700CC
:10683000180019001A001B001C001D001E001F007C
:10684000200021002200230024002500260027002C
:10685000280029002A002B002C002D002E002F00DC
:10686000300031A232003300340035A13600370049
:10687000380082003A003B003C003D003E003F00F3
:1068800040004100420043004400450046004700EC
:10689000480049004A004B004C004D004E004F009C
:1068A000500051005200530067005400550056003C
:1068B000580059005A005B005C005D005E005F00FC
:1068C00060006100620063006400650057006700BB
:1068D000CD4469006A006B006C006D006E006F00B3
:1068E0007000710072006620890087008A008B00AA
:1068F000E000E100E200E300E400E500E600E7007C
:106900008800010001000100EA4401000100E244A6
:106910000100010001000100460001004A004B0097
:10692000010001004700480001000100E9440100A6
:106930000100010001000100010001003A003B00DC
:106940003C003D003E003F0040004100420043004B
:10695000010035004C0001000100440045005200D8
:1069600049000100010050004F0029004D004E0079
:1069700051000100010001000100010001000100BF
:1069800001000100010001000100010001000100FF
:1069900001000100010001000100010001004D00A3
:1069A0004A004E004B0001000100010001000100FF
:1069B00001000100010001000100010001000100CF
:1069C00001000100010001000100650001006700F5
:1069D000010069006A006B006C006D006E006F00C2
:1069E0007000710072000100890087008A008B002E
:1069F0000100010001000100010001000100E700A9
:106A00008800010001000100EA4401000100E244A5
:106A10000100010001000100460001004A004B0096
:106A2000010001004700480001000100E9440100A5
:106A30000100010001000100010001003A003B00DB
:106A40003C003D003E003F0040004100420043004A
:106A5000010035004C0001000100440045005200D7
:106A600049000100010050004F0029004D004E0078
:106A700051000100010001000100010001000100BE
:106A800001000100010001000100010001000100FE
:106A900001000100010001000100010001004D00A2
:106AA0004A004E004B0001000100010001000100FE
:106AB00001000100010001000100010001000100CE
:106AC00001000100010001000100650001006700F4
:106AD000010069006A006B006C006D006E006F00C1
:106AE0007000710072000100890087008A008B002D
:106AF0000100010001000100010001000100E700A8
:00000001FF
